:100000000C94410C0C945E0C0C945E0C0C945E0CE5
:100010000C945E0C0C945E0C0C945E0C0C945E0CB8
:100020000C945E0C0C945E0C0C945E0C0C945E0CA8
:100030000C94791A0C945E0C0C945E0C0C94106069
:100040000C94501B0C945E0C0C945E0C0C945E0C87
:100050000C945E0C0C945E0C0C9488600C945E0CFA
:100060000C945E0C0C94D81A0C942B1A0C94FA195C
:100070000C945E0C0C945E0C0C945E0C0C945E0C58
:100080000C945E0C0C945E0C0C945E0C39313C317B
:100090005B319A31B731BD310832D831EF312D3271
:1000A00030325532413279329232B332C6324D6FEC
:1000B0006465000000FFFFFFFFFF6FFFFFFF070009
:1000C00007FF1830180C06087F7F7F082313086489
:1000D000623649552250FF0503FFFFFF1C2241FFF6
:1000E000FF41221CFF14083E081408083E0808FFC0
:1000F0005030FFFF00080808FFFFFF40FFFF2010FF
:100100000804023E41413EFF00427F40FF625149E8
:1001100046FF41494936FF1814127FFF27454539EC
:10012000FF3E494932FF01790503FF36494936FF51
:100130000649291EFFFF3636FFFFFF5636FFFFFF39
:1001400008142241141414141441221408FF02014B
:1001500051090606090906FF7E0909097E7F4949FA
:1001600049363E414141227F4141221C7F49494954
:10017000417F090909013E4149497A7F0808087F02
:10018000FF417F41FF2040413F017F081422417F12
:10019000404040FF7F020C027F7F0408107F3E41F9
:1001A00041413E7F090909063E4151215E7F0919FF
:1001B0002946264949493201017F01013F4040401B
:1001C0003F1F2040201F3F4030403F63140814630E
:1001D00007087008076151494543FF7F4141FF020D
:1001E00004081020FF41417FFF605846586040409E
:1001F0004040FFFF010204FF20545454787F4844DC
:1002000044383844444420384444487F3854545493
:1002100018087E0901020C5252523E7F08040478ED
:10022000FF447D40FF2040443DFF7F102844FFFFF6
:10023000417F40FF7C041804787C0804047838442B
:100240004444387C14141408081414187C7C0804E2
:1002500004084854545420043F4440203C4040206B
:100260007C1C2040201C3C4020403C44281028445A
:100270000C5050503C4464544C4410081008FFFF8C
:10028000FF7FFFFF41225428FF0808221C08081C9A
:1002900022080800000000000000000000FFFFFF2F
:1002A000FFFFFFFFFFFFFFFFFFFFFF00660076007D
:1002B0003E001EFFFFFFFFFFFFFFFF800180018068
:1002C0000180018001800180018001FFFFFFFFFFAD
:1002D000FFFFFF0030007800780030FFFFFFFFFFD6
:1002E000FFFFFF00600060006000600060006000D1
:1002F000600060FFFFFFFFFFFFF81FFC3F0E70066E
:100300006006600E70FC3FF81FFFFFFFFF00001843
:10031000601C60FE7FFE7F006000600000FFFFFF4A
:10032000FF18781C7C0E6E06678663CE61FC6078D1
:1003300060FFFFFFFF06600660866186618661CE12
:1003400073FC3F781EFFFFFFFF8007C007E00670C9
:100350000638061C06FE7FFE7FFFFFFFFF7E187E2D
:1003600038667066606660E670C63F861FFFFFFFF6
:10037000FFF81FFC3F8E71866186618E731C3F18EB
:100380001EFFFFFFFF06000600867FC67FE60076A1
:10039000003E001E00FFFFFFFF781EFC3FCE73866D
:1003A000618661CE73FC3F781EFFFFFFFF7800FC83
:1003B00000CE6186718639CE1DFC0FF807FFFFFF66
:1003C000FF0000300C781E781E300CFFFFFFFFFF8F
:1003D000FFFFFFE07FF07FB8019C018E018E019C42
:1003E00001B801F07FE07FFE7FFE7F866186618637
:1003F0006186618661CE73FC3F781EF81FFC3F0E5C
:100400007006600660066006600E701C381818FEE4
:100410007FFE7F0660066006600E701C38381CF098
:100420000FE007FE7FFE7F866186618661866186BA
:1004300061866106600660FE7FFE7F86018601861A
:100440000186018601860106000600F81FFC3F0EAA
:100450007006608661866186618E719C7F983FFE22
:100460007FFE7F800180018001800180018001FE8C
:100470007FFE7FFFFFFFFF06600660FE7FFE7F06B8
:10048000600660FFFFFFFF00180038007000600684
:10049000600670FE3FFE1F06000600FE7FFE7F80A6
:1004A00001C003E007700E381C1C380E700660FE99
:1004B0007FFE7F0060006000600060006000600000
:1004C000600060FE7FFE7F1C003800F001F0013804
:1004D000001C00FE7FFE7FFE7FFE7F7000E000C0FC
:1004E0000180030007000EFE7FFE7FF81FFC3F0E19
:1004F0007006600660066006600E70FC3FF81FFE26
:100500007FFE7F86018601860186018601CE01FC81
:10051000007800F81FFC3F0E7006600666066E0647
:100520003C0E38FC7FF867FE7FFE7F8601860186E1
:1005300007860F861DCE39FC7078607818FC38CE9F
:100540007186618661866186618E731C3F181E0606
:1005500000060006000600FE7FFE7F06000600067D
:10056000000600FE1FFE3F0070006000600060009B
:10057000600070FE3FFE1FFE07FE0F001C003800EB
:100580007000700038001CFE0FFE07FE1FFE3F00CB
:10059000700070003E003E00700070FE3FFE1F1EA7
:1005A000783E7C700EE007C003C003E007700E3E8B
:1005B0007C1E787E00FE00C0018003007F007F80EB
:1005C00003C001FE007E000678067C066E06678684
:1005D00063C661E66076603E601E600018003C60A5
:1005E0007E6066606660666066E066C07F807FFEF3
:1005F0007FFE7F8061C061E06060606060E070C02D
:100600003F801F801FC03FE070606060606060607E
:1006100060607000380018801FC03FE0706060604C
:1006200060E060C0618061FE7FFE7F801FC03FE0B0
:10063000766066606660666066E066C00780078018
:10064000018001F87FFC7F8E01860106000E001CF0
:10065000001800E001F0033867186618661866187D
:10066000661876F83FF81FFE7FFE7F8001C001E02C
:100670000060006000E000C07F807FFFFFFFFF6040
:10068000606060E67FE67F00600060FFFFFFFFFFC5
:10069000FF001800380070006060606070E63FE6A0
:1006A0001FFFFFFE7FFE7F0006000F801FC039E0A6
:1006B000706060FFFFFFFFFFFFFFFF06600660FE48
:1006C0007FFE7F00600060FFFFFFFFE07FE07F6054
:1006D00000E000C007C007E000E000C07F807FE0CE
:1006E0007FE07F8001C001E00060006000E000C0AA
:1006F0007F807F801FC03FE07060606060606060EE
:1007000060E070C03F801FE07FE07F6006600660B1
:100710000660066006E007C00380018001C003E0B8
:1007200007600660066006C0078007E07FE07FE0A4
:100730007FE07F8001C001E00060006000E000C059
:100740000180018061C063E067606660666066602A
:1007500066607E003C001860006000F81FF83F6093
:100760007060600060007000380018E01FE03F001B
:100770007000600060007000380018E07FE07FE0EB
:1007800007E00F001C0038007000700038001CE00B
:100790000FE007E01FE03F007000700038003800F5
:1007A000700070E03FE01F6060E070C039801F00A3
:1007B0000F000F801FC039E0706060E001E00300AF
:1007C0006700660066006600660076E03FE01F6036
:1007D0006060706078607C606E6067E063E061E03C
:1007E000606060000000FFFFFF80E060FF001818FD
:1007F00018FFFF6060FFFF60606060FF3E7F417F29
:100800003E00427F7F406273594F4641497F7F36A9
:10081000181C127F7F2767457D393E7F497B320157
:10082000797D0703367F497F36064F693F1EFF36C5
:1008300036FFFF7E7F097F7E7F7F497F363E7F4187
:1008400077367F7F413E1C7F7F4949417F7F090981
:10085000013E7F415B7A7F7F087F7F417F7F41FF41
:100860003070417F3F7F7F1C77637F7F4040FF7FF9
:100870007E0C7E7F7F7E1C3F7F3E7F417F3E7F7F61
:10088000090F063E7F412F5E7F7F196F46264F5D21
:100890007932017F7F01FF3F7F607F3F1F3F603FD5
:1008A0001F7F3F103F7F63771C7763070F787F0FB1
:1008B00071795D4F472074547C787F7F447C383851
:1008C0007C444420387C447F7F387C545C18087E0C
:1008D0007F09020C5E527E3E7F7F047C78447D7DE2
:1008E00040FF3070447D3D7F7F2844FF417F7F4043
:1008F000FF7C1C381C787C780C7C78387C447C38F5
:100900007C7C243C18183C247C7C7C780C1C18488B
:100910005C7C7420043F7F44203C7C603C7C1C3C1D
:10092000603C1C3C7038703C446C386C440C5C502F
:100930007C3C4464745C4C4E6F2066726565206537
:1009400078706F21004E6F2066726565206D697842
:10095000657221005F2D2E2C0003010200040506A4
:10096000071B1E272D36394B4E636C7278878D938B
:100970009CB1B4C6C9D2D8E1E40101020A3C01012C
:100980000414500101081E6402020F287805051E98
:100990003296CB1B7B286447AF4D3F5043502B57BB
:1009A000FB4CE144A641524DFA304243A24839483B
:1009B000F22BC31944454C455445204D4F44454CFA
:1009C00000436F7079696E67206D6F64656C2E2EC1
:1009D0002E004D6F76696E67206D6F64656C2E2EEC
:1009E0002E0066726565004D4F44454C53454C00E2
:1009F0004C6F6164696E67206D6F64656C2E2E2E7E
:100A00000043414C4942524154494F4E00085B4D0E
:100A1000454E555D20544F205354415254000453C9
:100A2000455420535449434B53204D4944504F495A
:100A30004E5400065B4D454E555D205748454E20AF
:100A4000444F4E4500064D4F564520535449434BA5
:100A5000532F504F54530040800804201002014E81
:100A6000616D650053776974636800000003004698
:100A70004C49474854204D4F4445005472696D73AA
:100A8000004661646520496E0046616465204F75CB
:100A90007400464D0000000200000200000000004B
:100AA0000000000005060102534554555000014D59
:100AB000696E7574650001436F756E74646F776E4F
:100AC0000054696D657200452E4C696D6974730040
:100AD000452E5472696D73005472696D20537465AC
:100AE0007000542D5265766572736500542D536FF6
:100AF0007572636500542D5472696D00542D5761F1
:100B0000726E696E6700532D5761726E696E670071
:100B10004374722042656570000150726F746F00FB
:100B20000150504D206672616D65006D7300414E3D
:100B3000415300410042473A004261747465727942
:100B40002043616C6962000000000101040000495B
:100B50004E53455254204D49582000454449542095
:100B60004D4958200001536F7572636500014F664F
:100B700066736574005472696D0044526578004470
:100B8000696666005761726E696E67004F4646007F
:100B90004D756C7470780044656C617920557000F7
:100BA00044656C617920446E00536C6F772020554A
:100BB0007000536C6F772020446E001208001038CC
:100BC0001010103810000010440092004410000073
:100BD00000000044FE440000001044009200441055
:100BE00000001044009200441000000044FE440045
:100BF0000000000010440092004410000010381063
:100C00001010381000034F46464F4E00032D2D2D77
:100C1000494E56040134434801364348013843489D
:100C20003130434831324348313443483136434808
:100C3000055175696574416C61726D4E6F4B6579D4
:100C4000416C6C0020034F4646202B3D203A3D036B
:100C5000434831434832434833434834064578706B
:100C60006F0020457846696E6546696E6500204DC7
:100C7000656469756D436F617273650152455441D6
:100C80003132330650504D00202050504D31360047
:100C900050504D73696D03504F534E4547044F46B6
:100CA00046004B6579734374726C426F74684F4EA3
:100CB0000020032D2D2D783E30783C307C787C66EA
:100CC0003E30663C307C667C084164640020202015
:100CD000204D756C7469706C795265706C616365D8
:100CE00000022B3D2A3D3A3D034F46464F4E0052EF
:100CF0007564456C6554687241696C052D2D2D0035
:100D000020617B780020613E780020613C780020E3
:100D10007C617C3E787C617C3C78414E4400204F75
:100D200052002020584F520020613D620020613E59
:100D3000620020613C6200205E7D7800207C5E7C49
:100D40007D7854696D0020476C7565000A536166B3
:100D500065747900202020547261696E65720020EC
:100D600020496E73742E205472696D5265736574D8
:100D700000202020205B41646A75737447565D42F1
:100D80006565700020202020205B506C6179205424
:100D9000726B5D5B506C6179204274685D5B506C76
:100DA00061792056616C5D5B566172696F5D0020F0
:100DB000205B4861707469635D00204261636B6C05
:100DC000696768740004546D7231546D7232416CFD
:100DD0006C000442703100427032004270330057A0
:100DE000726E3157726E3243686565526174615438
:100DF00069636B5369726E52696E675363694652D9
:100E00006F627443687270546164614372636B41D2
:100E10006C726D042D2D2D0042617474546D72310D
:100E2000546D7232547800205278002041310020F5
:100E300041320020416C740052706D004675656C43
:100E4000543100205432002053706400446973749C
:100E500047416C7443656C6C43656C735666617393
:100E600043757272436E7370506F7772416363584B
:100E7000416363594163635A486467005653706421
:100E8000415370646454450041312D0041322D00BE
:100E9000416C742D416C742B52706D2B54312B00AE
:100EA00054322B005370642B4473742B4153702BBA
:100EB00043656C2D436C732D5666732D4375722BF1
:100EC0005077722B4163630054696D650D436C6507
:100ED0006172204D69786573000053696D706C65AF
:100EE00020342D43482000537469636B792D542DB1
:100EF00043757400562D5461696C202020202020F9
:100F000000456C65766F6E5C44656C74610065438A
:100F100043504D202020202020200048656C69206F
:100F20005365747570202000536572766F20546588
:100F30007374202000042D2D2D0031323000313209
:100F4000305831343000393000054D656E7500453C
:100F500078697400446F776E0055700020205269E4
:100F60006768744C65667400032D2D2D4944304923
:100F70004431494432544852525544454C45414904
:100F80004C47454154524E74526C745272744564CD
:100F900074457574546474547574416C7441724C26
:100FA00031004C32004C33004C34004C35004C3690
:100FB000004C37004C38004C39004C31304C31314A
:100FC0004C31324F4E004F6E65042D2D2D00527561
:100FD0006400456C65005468720041696C005031D2
:100FE000002050320020503300204D41580043591A
:100FF0004331435943324359433354726D5254720F
:101000006D4554726D5454726D4133504F53034FBC
:101010004646414253544873544825544874004549
:101020004550524F4D206C6F77206D656D005448D0
:10103000524F54544C45005468726F74746C652060
:101040006E6F742069646C65005072657373206103
:101050006E79206B657920746F20736B6970005313
:1010600057495443480000FF000000FF0000000003
:10107000FF0000000000FF01524144494F2053454A
:1010800054555000536F756E6400014D6F646500D8
:10109000014C656E67746800436F6E74726173749F
:1010A00000416C61726D7300014261747465727904
:1010B000204C6F7700014D656D6F7279204C6F7712
:1010C0000001536F756E64204F66660001496E61C2
:1010D00063746976697479004261636B6C696768EF
:1010E000740001416C61726D000144757261746934
:1010F0006F6E0053706C6173682073637265656E08
:10110000005278204368616E6E656C204F726400F7
:10111000444542554700546D72314C6174206D61F5
:10112000781F54757300546D72314C6174206D6971
:101130006E1F54757300546D7231204A6974746562
:10114000721F54757300546D6978206D61781F5457
:101150006D73004672656520537461636B1F546242
:10116000005B4D454E555D20746F2072657365744C
:101170000008507265737320616E79204B657900A9
:101180001B20FC04040404040484C48404E4F4E484
:101190000484C4C40404040404040404FCFF000024
:1011A00000FCFE00FFFFFF80FFFFFF80FFFFFF004E
:1011B00000008080800000FFFF000000FFFFFFFFB5
:1011C000FFFFFFFFFFFFFFFFFFFFF8FCFF3F0F03E5
:1011D0000000FF3F2020202127272F2F2F2B272FF4
:1011E0002F2F2F2F2F27232020202020203F574133
:1011F000524E494E47009C141E465A50463C466487
:10120000645A505A64E2F10032649CCE00326400A9
:10121000034C4F474943414C205357495443484599
:10122000530000045350454349414C2046554E431A
:1012300054494F4E530048454C492053455455504E
:10124000005377617368205479706500436F6C6C4C
:101250006563746976650053776173682052696EBF
:101260006700454C4520446972656374696F6E0080
:1012700041494C20446972656374696F6E0050493E
:101280005420446972656374696F6E000002020243
:101290000200545241494E455200536C617665003C
:1012A0004D6F6465062520536F75726365004D753B
:1012B0006C7469706C6965720043616C0054520013
:1012C0004348004D4F44454C005354415453001F74
:1012D00066544F541E544D311F66544D321E5448AF
:1012E000521F6654482500535749544348455300FC
:1012F0005472696D2D202B0056455253494F4E00B4
:10130000564552531F1B3A20322E302E311E444177
:1013100054451F1B3A20323031342D30362D3036B3
:101320001E54494D451F1B3A2030313A31303A3076
:10133000321E454550521F1B3A203231362D3000A7
:101340004356004375727665005765696768740097
:10135000454550524F4D206F766572666C6F770031
:1013600000000004004578706F004E2F4100536963
:101370006465004355525645005479706500707499
:101380002700707400783D00793D00435552564562
:10139000530054454D504C4154455300464C494729
:1013A0004854204D4F444553002864656661756C70
:1013B00074290006436865636B0A5472696D730093
:1013C00000030303030303030303030303030303F0
:1013D00003004C494D49545300065472696D732003
:1013E0003D3E205375627472696D7300496E766577
:1013F0007274205468723F0044522F4558504F0079
:101400002F3134002F3332004D49584552004545A5
:1014100050524F4D0000010203000201030301027C
:101420000003020100E2AEA1A6A4A2C02F258122E2
:10143000AF42616420454570726F6D2044617461F4
:1014400000466F726D617474696E67204545505235
:101450004F4D00535053008040FFFFFFFFFFFFFF41
:10146000FFFFFFFFFFFFFFFFFFFFFFFFFFFFFFFF8C
:10147000FFFFFFFFFFFFFFFFFFFFFFFFFFFFFFFF7C
:10148000FFFFFFFFFFFFFFFFFFFFFFFFFFFFFFFF6C
:10149000FFFFFFFFFFFFFFFFFFFFFFFFFFFFFFFF5C
:1014A000FFFFFFFFFFFFFFFFFFFFFFFFFFFFFFFF4C
:1014B000FFFFFFFFFFFFFFFFFFFFFFFFFFFFFFFF3C
:1014C000FFFFFFFFFFFFFFFFFFFFFFFFFFFFFFFF2C
:1014D000FFFFFFFFFFFFFFFFFFFFFFFFFFFFFFFF1C
:1014E000FFFFFFFFFFFFFFFFFFFFFFFFFFFFFFFF0C
:1014F000FFFFFFFFFFFFFFFFFFFFFFFFFFFFFFFFFC
:10150000FFFFFFFFFFFFFFFFFFFFFFFFFFFFFFFFEB
:10151000FFFFFFFFFFFFFFFFFFFFFFFFFFFFFFFFDB
:10152000FFFFFFFFFFFFFFFFFFFFFFFFFFFFFFFFCB
:10153000FFFFFFFFFFFFFFFFFFFFFFFFFFFFFFFFBB
:10154000FFFFFFFFFFFFFFFFFFFFFFFFFFFFFFFFAB
:10155000FFFFFFFFFFFFFFFFFFFFFFFFFFFFFFFF9B
:10156000FFFFFFFFFFFFFFFFFFFFFFFFFFFFFFFF8B
:10157000FFFFFFFFFFFFFFFFFFFFFFFFFFFFFFFF7B
:10158000FFFFFFFFFFFFFFFFFFFFFFFFFFFFFFFF6B
:10159000FFFFFFFFFFFFFFFFFFFFFFFFFFFFFFFF5B
:1015A000FFFFFFFFFFFFFF07070707070707070703
:1015B00007070707070707070707FFFFE7C707072B
:1015C000070707071F7FFFFFFF3F0F0707070707F3
:1015D00087E7F7FFFFFFFFFFFFFFFFFFFFFFFF1F93
:1015E000070303C1F1F8F8F8F8F0F1C10303071F8E
:1015F000FFFFFF00000000F8F8F87000010307FF8C
:10160000FF00000000383838383838FFFF0000008D
:101610000081030F1F3FFFFF00000000FFFFFF00DE
:101620000103070F1F3F7FFEFEFEFEFEFE000000CF
:1016300000000000FEFEFEFEFEFEFFFFFFFFFFFEBD
:10164000F8F0C08000000103000000C0E0F8FCFFDB
:10165000FFFFFFFFFFFFFFFFFFFFFFFFFFFFFFF8A1
:10166000E0C0C0838F1F1F1F1F1F8F83C0C0E0F803
:10167000FFFFFF00000000F8F8F8F8F8FCFCFFFF9F
:10168000FF000000001E1E1E1E1E1EFFFF000000A9
:1016900000FFFFFCF8F0C08100000000FFFFFF002A
:1016A0000080C0E0F0F8FCFEFFFFFFFFFF0000003D
:1016B00000000000FFFFFFFFFFFFFFFFFFFF7F1F96
:1016C0000F0301000080E0F0C000000003071F3F8F
:1016D000FFFFFFFFFFFFFFFFFFFFFFFFFFFFFFE732
:1016E000E7E7E7E7E7E7E7E7E7E7E7E7E7E7E7E78A
:1016F000E7E7E7E7E7E7E7E7E7E7E7E7E7E7E7E77A
:10170000E7E7E7E7E7E7E7E7E7E7E7E7E7E7E7E769
:10171000E7E7E7E7E7E7E7E7E7E7E7E7FFFFFFFEFA
:10172000FFFFFFFFFFFFFFFFFFFFFFFFFFE0E0E026
:10173000E0E0E0E0FFFFFFFFFFFFEFE7E1E0E0E0D8
:10174000E0E0F0F8FEFFFFFFFFFFFCF8E0E0E0E084
:10175000E0E1E7EFFFFFFFFFFFFFFFFFFFFFFFFFFE
:10176000FFFFFFFFFFFFFFFFFFFFFFFFFFFFFFFF89
:10177000FFFFFFFFFFFFFFFFFFFFFFFFFFFFFFFF79
:10178000FFFFFFFFFFFFFFFFFFFFFFFFFFFFFFFF69
:10179000FFFFFFFFFFFFFFFFFFFFFFFFFFFFFFFF59
:1017A000FFFFFFFFFFFFFFFFFFFFFFFFFFFFFFFF49
:1017B000FFFFFFFFFFFFFFFFFFFFFFFFFFFFFFFF39
:1017C000FFFFFFFFFFFFFFFFFFFFFFFFFFFFFFFF29
:1017D000FFFFFFFFFFFFFFFFFFFFFFFFFFFFFFFF19
:1017E000FFFFFFFFFFFFFFFFFFFFFFFFFFFFFFFF09
:1017F000FFFFFFFFFFFFFFFFFFFFFFFFFFFFFFFFF9
:10180000FFFFFFFFFFFFFFFFFFFFFFFFFFFFFFFFE8
:10181000FFFFFFFFFFFFFFFFFFFFFFFFFFFFFFFFD8
:10182000FFFFFFFFFFFFFFFFFFFFFFFFFFFFFFFFC8
:10183000FFFFFFFFFFFFFFFFFFFFFFFFFFFFFFFFB8
:10184000FFFFFFFFFFFFFFFFFFFFFFFFFFFFFFFFA8
:10185000FFFFFFFFFFFFFFFFFF53504500414C41DB
:10186000524D5300416C61726D7320446973616223
:101870006C6564005B4D454E555D085B45584954A9
:101880005D0011241FBECFEFD0E1DEBFCDBF11E060
:10189000A0E0B1E0EEEDFAEC02C005900D92A031AF
:1018A000B107D9F71CE0A0E1B1E001C01D92AA3355
:1018B000B107E1F70E94BC600C946D650C940000C8
:1018C000FC012081220F61112160208381818F5FC3
:1018D00081838281882351F0211108C0833621F051
:1018E000CA0180628093DF0811821282828188306F
:1018F00051F140F4813079F180F0823021F184306F
:10190000E9F521C08F35B1F018F48031B9F51BC06D
:10191000813639F0823691F52BC02F3079F581E68A
:101920002BC040664093DF0810922D0310922C03C9
:101930008FE522C08181803211F4406816C0883260
:10194000E9F480E119C09181903328F090E09595F9
:10195000879582831182828190E00197218130E016
:1019600082239323892B51F440644093DF08089528
:101970008181803418F088E0828311820895EDE738
:10198000F0E080818F7D8083179AAAE8B0E01C92F6
:1019900010928B008AE08C93808188618083089507
:1019A000282F30E82303F0011124EB53FC4F80E093
:1019B0009081909591938F5F8038D1F7089587FD3E
:1019C00053C047FF02C0640F419567FF02C0460F36
:1019D00060E0A42FBB27A7FDB095A60FB11D67FD42
:1019E000BA95A134B10514F040E4461B253511F435
:1019F00060FF2AEA362F359535953595E82FF0E0CA
:101A000050E83503E00DF11D1124EB53FC4F6770D6
:101A1000B9F081E090E0062E01C0880F0A94EAF741
:101A200081958223908189278083E058FF4F6850F9
:101A3000460F06C0808182278083E058FF4F4850C0
:101A40001416C4F3442381F0485F71F0E058F109A3
:101A500081E090E0042E01C0880F0A94EAF7819596
:101A6000822390818927808308952FEF0C94DF0CC7
:101A7000FC01808141FF02C0682B06C042FF03C009
:101A80006095682301C0682760830895EF92FF92F4
:101A90000F931F93CF93DF93122F603470F5C82FED
:101AA000D0E0FE01E40FF11DE138F10514F040E84B
:101AB000481B862F86958695869590E8899FC00D50
:101AC000D11D1124677081E090E0E82E01C0EE0C7A
:101AD0006A95EAF7CB53DC4FFC2EF40E0CC010FFD6
:101AE00008C0402F6E2DCE010E94380D169510684B
:101AF00001C016952196FC12F2CFDF91CF911F9174
:101B00000F91FF90EF900895DF92EF92FF920F9365
:101B10001F93CF93DF93C82F162FD42FD22EF02EE2
:101B2000202F4D2D0E94DF0C8C2F8150202F4D2D0A
:101B3000612F8D0F0E94DF0CE3FC02C0CF5FD250FB
:101B4000612F61506D0D00E02F2D4D2F8C2F0E94C5
:101B5000460D2F2D4D2F612F8C2F0E94460DDF91AA
:101B6000CF911F910F91FF90EF90DF9008950F9309
:101B7000022F2FEF0E94460D0F9108959F92AF9272
:101B8000BF92CF92DF92EF92FF920F931F93CF936A
:101B9000DF93962F969596959695A82FB0E030E80E
:101BA000939FA00DB11D1124982F915090938802FE
:101BB000AC53BC4F20FF07C03091890236FF07C0ED
:101BC00021FD07C0D3C021FB332730F903C030E02B
:101BD00001C031E0522F5474D1F0542F5C525F3069
:101BE00010F45F5F15C0542F51545A3110F4505FF8
:101BF0000FC0542F51565A3110F4565D09C04F355D
:101C000021F0403221F02F7B02C054E001C050E0AF
:101C100022FF34C064E1569FA00111244D565D4F50
:101C200010E0111107C0882311F031110CC09F5F23
:101C3000119620C01B3039F0FA01249131964E5F85
:101C40005F4FE49102C0E0E020E06E2F62236F3F1F
:101C500089F0332311F02095E095BD016F577F4F38
:101C6000655C774038F42C93ED01C058DF4FE88372
:101C700011969F5F1F5F1C30A1F676C0F7E09F2E84
:101C8000962226FD07C065E0469FA00111244D5E07
:101C90005F4F06C075E0579FA00111244D51584F6A
:101CA000092D10E0EFEFF0E0DE2E092C01C0DD0C75
:101CB0000A94EAF7CD2CC09470E068E0B62EB22208
:101CC000C8E0D0E0C01BD10BE0E1AE2EA222711122
:101CD00007C0882311F0311111C09F5F119640C0D9
:101CE000763041F0FA014F5F5F4FE491EF3F19F416
:101CF000AA20B1F1E0E0332319F001C0E0E0E09563
:101D0000BB2011F0723061F1F7E0A53CBF0730F560
:101D1000EE2EF12CF701002E01C0EE0F0A94EAF727
:101D20002C912C212E2B2C939920C1F0FD01E058F1
:101D3000FF4F67E0E53CF60750F40C2E02C0F59427
:101D4000E7940A94E2F7F080FD20FE28F082332326
:101D500029F0E1E09E1202C021602C9311969F5F52
:101D60007F5F773009F0B3CF90938802DF91CF91F6
:101D70001F910F91FF90EF90DF90CF90BF90AF90A9
:101D80009F90089520E00C94BE0D8F5F90E0FC01C1
:101D9000EE0FFF1FE80FF91FE356F74F81E0948124
:101DA000911101C080E00895CF93DF93EC01688327
:101DB0001A82198270E0FB01EE0FFF1FE60FF71F7A
:101DC000E356F74F84818B831C8210927A01DF9156
:101DD000CF9108957093990860939808909397080D
:101DE000809396084F5F4093200CE39A8091DD0822
:101DF000811102C00895A8958091200C1816DCF37B
:101E0000089540E450E060E070E08DE998E00C94C3
:101E1000EA0E41E050E062E070E08FE998E00C9457
:101E2000EA0E6093100190E1899FB001112441E016
:101E300050E080E191E00C94EA0E93E0899FB001BC
:101E400011246C5F7F4F282F30E0C901880F991F44
:101E5000820F931F43E050E08F55974F0C94EA0E8A
:101E6000CF92DF92EF921F93CF93DF93162F282FFD
:101E700030E0E901CC0FDD1FC20FD31FC356D74F8F
:101E80002C813D814E81A62FB0E0FD01EE0FFF1F9A
:101E9000EA0FFB1FE356F74FC480D580E680CC8263
:101EA000DD82EE82248335834683CDEDD8E091E058
:101EB00098830E941D0F812F0E941D0F1882DF91B1
:101EC000CF911F91EF90DF90CF900895282F2F7121
:101ED00030E0245031092230310518F48093DF08B6
:101EE000089510920F080895882371F0E82FF0E00C
:101EF000E456F54F2081332727FD309595E0899FE3
:101F0000200D311D112402C020E030E02B55354F4B
:101F1000C90108951F93CF93DF93182F0E94740F68
:101F2000EC01812F8F5F0E94740F8C1B9D0B80FD35
:101F300004C086958F5F91E001C090E0BE01DF9103
:101F4000CF911F9108950F931F93CF93DF93C82FC5
:101F50008091C5070E948A0F482F092FFB01C817DF
:101F6000D0F52C2F30E0C90175E0880F991F7A95C4
:101F7000E1F7642F669570E00E943565D62FD35C3B
:101F8000E20FF31FA0818FE3A802D0011124CD013D
:101F90008456974E68E37FEF0E943565162F115CDB
:101FA0000023D9F0CC23C9F050E0DA0111972A17A9
:101FB0003B079CF4E40FF51F3197808120E48202F7
:101FC000C00111248C59964E68EC70E00E94356572
:101FD000D62FD35C02C010E0D0E08D2F912FDF917F
:101FE000CF911F910F91089583393CF4282F332707
:101FF00027FD30952F573F4F0FC087303CF495E0B9
:102000008902900111242B5C3D4F06C09AE08902A1
:10201000900111242E5E3D4FC9010895863040F095
:10202000893040F08C3040F08E3040F08A50089576
:1020300080E0089581E0089582E0089583E00895A6
:1020400090E09C01220F331F280F391F235F344F6C
:10205000C90108958F929F92BF92CF92DF92EF9223
:10206000FF920F931F93CF93DF93C82E8091F208B6
:1020700085FF03C0C0E0D5E002C0C0E0D4E0CC20C2
:1020800039F021E0EEEDF1E0C21204C080E103C0BE
:10209000E6E9F1E088E0D090F108D594D594D594A4
:1020A000D594DD0CD80E4091F30884E64802A001D7
:1020B0001124485A5D4F08EC1FEA041B150BA09130
:1020C000A50BBB27A7FDB09528EE33E00E949964CD
:1020D000600F711F811D911DA1E0CA1204C0B8EFED
:1020E000BB2EBD0C2BC0B12C29C02B2D30E0220FF4
:1020F000331F2A5C3E4FD901ED90FC90E814F9049F
:1021000024F0EC16FD061CF403C0740101C07E012E
:10211000B8E4EB1AB4EFFB0A8701222717FD2095DC
:10212000322F601B710B820B930B51834083E41A97
:10213000F50AF382E2823496B39404C08824992489
:102140008C1A9D0ABD1488F2518340836115710574
:1021500021E0820791053CF46832A3E27A07810509
:10216000910534F009C06FEF7FEF80E090E004C08C
:1021700068E273E280E090E0DF011496C1100BC0CA
:10218000685E73407383628386E991E090930201F5
:102190008093010109C073836283CB01885E934001
:1021A00090932702809326021D921C92DF91CF917B
:1021B0001F910F91FF90EF90DF90CF90BF909F9075
:1021C0008F9008958823E1F087FF06C0863E1CF0BB
:1021D000E0E6E81B16C081958B311CF4E82FE05C2B
:1021E00010C085321CF4E82FEB5E0BC0893244F43A
:1021F000E82FFF27E7FDF095E15DF64FE49101C080
:10220000E0E28E2F0895AF92BF92CF92DF92EF92CD
:10221000FF920F931F93CF93DF931F92CDB7DEB73B
:10222000E82EF62ED22E5A01182FC12CD40E802F54
:10223000807A898337C0E981E03219F0E03851F4BF
:1022400003C0F501408108C0F50180810E94E210C1
:10225000482F02C0F5014491C1101CC0442321F154
:10226000403240F0202F6F2D812F0E94BE0D109123
:10227000880215C04F3189F04E3139F4F8E0FF0E75
:102280008FE31E2D8F1580F00AC0842F880F840FD6
:10229000180F05C0142FC12C02C0CC24C394EFEF3B
:1022A000AE1ABE0ADA10C7CF10938B0210938802C1
:1022B0000F90DF91CF911F910F91FF90EF90DF90E2
:1022C000CF90BF90AF9008950F93FA0194910F753E
:1022D0004F5F5F4F929F400D511D1124292F0E9487
:1022E00003110F9108950F931F93CF93DF93D82F6E
:1022F000162FC42F022F423E21F420E045E05CE07F
:102300000AC047FF05C041E282500E94BE0DC19540
:102310002C2F48E65FE0612F8D2F0E946411DF9122
:10232000CF911F910F9108950F9347FD0AC045303B
:102330003CF4022F242F4EE050E10E94641104C0AF
:1023400044500F910C9473110F9108950F934150C5
:10235000022F242F4BE75CE00E9464110F91089537
:102360000F93022F2FEF0E9403110F91089520E089
:102370000C94B011AB01682F80E00C94B71122E0EF
:10238000AC0160E080E00C94B0112091810132B783
:10239000809181012813F9CF922F80E0AC01432B6B
:1023A0009A01C90108958091F1088770909179018F
:1023B000911184E090910301981709F463C0809310
:1023C00003011EBC1DBC1CBC97B7937C97BF9091AA
:1023D0007D009E7F90937D009CE396BF9FE390934A
:1023E0007C00813019F0823081F51CC080E49CE9CA
:1023F0009BBD8ABD87B7806187BF1FBC8AE08EBD49
:1024000081E00E942A1080E593EC909387008093EE
:10241000860088E893E190938500809384000E9471
:10242000BF0C30C082E00E942A1080E593EC9093AC
:1024300087008093860088E893E1909385008093DD
:1024400084000E94BF0CC0981DC080917D00857ED5
:1024500080937D0017981F9A10928A0010928B002B
:1024600082E880938A0080917D00806280937D0065
:1024700080EE9BEA9BBD8ABD87B7806187BF1FBC8A
:102480008AE08EBD8091F2088295817080939501DB
:102490000E94C5112091A50B38E02302800D911DEB
:1024A0001124885B9E4F9093240C8093230C80E032
:1024B0000C942A10CF93DF9390E0FC01C3E0EE0F61
:1024C000FF1FCA95E1F7EA5DFE4F1482EC01CC0FC5
:1024D000DD1FC80FD91FC451D74F988189818F70D4
:1024E000958386831782DF91CF91089580910001B3
:1024F00081111092000180E00E945A1281E00E9436
:102500005A12EFE0F3E080E090E88193919323E0AA
:10251000E732F207D1F710928302109282021092F2
:102520002703109229031092280310922B03109274
:102530002A030895E3E1F1E040E0842F806487B945
:10254000369A3699FECF24B135B1369A3699FECFF8
:1025500084B195B1820F931F819391934F5F48305F
:1025600061F70895E82FF0E0E75AF64FE491F0E0C4
:10257000EE0FFF1FED5EFE4F20813181C9010895EE
:102580008091000C2AEF829FC0011124880F991FAF
:10259000909386028093850208958250823028F4B9
:1025A00085E0689FB001112401C070E0CB0108955F
:1025B000E9EBFBE020E030E081919191280F391F99
:1025C0008BE0E13DF807C1F7C901089595E0899FC7
:1025D000900111242B5E354FC901089599E0899F20
:1025E000900111242B50374FC901089594E0899F21
:1025F000900111242B59354FC90108951F93CF9392
:10260000DF93182F882311F0CDE001C0CFE1D0E097
:102610008C2F112331F00E94F612FC0190819370EF
:1026200005C00E94EE12FC0194819F739111DF5F3F
:10263000C150C7FFEDCF8D2FDF91CF911F9108952E
:10264000CF93C82F0E94FE12282F30E0C1110CC07A
:102650000FC087E399E002C085E499E09093B50B41
:102660008093B40B81E008C02E30310594F703C08D
:10267000203231058CF780E0CF9108959DE0899F4D
:10268000900111242C59344FC9010895CF93C62FBE
:102690000E943E136C2F70E0FC01E60FF71F408193
:1026A000FC012481332727FD3095660F771F02C078
:1026B000359527956A95E2F723703327F4E04F02AA
:1026C000200D311D1124C901CF910895FF920F9360
:1026D0001F93CF93DF93C82FD62FF42E122F622F84
:1026E000842F0E944613853F21E092078CF0982F9B
:1026F000955F9F1508F09F5F492F405D202F6D2F3C
:102700008C2FDF91CF911F910F91FF900C94BE0DF4
:10271000412F4F5F202F6D2F8C2FDF91CF911F9175
:102720000F91FF900C94A6111F93CF93DF93C82FA6
:10273000162FD5E0CC2381F0612F8C2F0E944613F9
:10274000853F21E0920744F0855F8C1708F08F5F8A
:10275000D150C82F79F7C0E08C2FDF91CF911F9116
:102760000895CF93C62F0E9494136C2FCF910C9491
:102770004613E091010CF0E0EF59F64FE491F0E0E0
:1027800024E030E0281B3109220F331F02C0F595E9
:10279000E7952A95E2F7E370FF278E2F8F5F089564
:1027A0009091FB0B95FF05C0823018F024E1209337
:1027B00084029871983049F0911103C0811105C0CD
:1027C00008959831C1F48330B0F09091050C929542
:1027D000990F907E95959595959595959595E82F5A
:1027E000F0E085E09802E00DF11D1124ED57F64F61
:1027F000E491E0939C0808950F931F93CF93DF9388
:102800008091890290918A02019690938A02809326
:1028100089028091850290918602009729F00197A4
:10282000909386028093850280918402882319F018
:1028300081508093840280911008882319F0815080
:10284000809310088091C607882319F081508093E7
:10285000C60780919201882319F0815080939201DC
:1028600006B3009540E050E010E0EA012196B8017F
:102870000C2E02C0759567950A94E2F76170CA0143
:10288000880F991F840F951F85569C4F0E94600CDE
:10289000AE01C630D10549F710B31095C6E0D0E0BF
:1028A000FE01EF5AF54FE491E12361E009F460E0A5
:1028B000CE01880F991F8C0F9D1FAE0185569C4F2E
:1028C0000E94600C2196CE30D10551F78091C70748
:1028D00080FF09C08091890290918A02811103C012
:1028E00081E00E94D0138091C70781FF0CC08091C6
:1028F000890290918A02803411F18091890290912D
:102900008A028834E1F08091C70782FF12C080916B
:10291000890290918A028038B1F080918902909169
:102920008A02883881F08091890290918A028039E8
:1029300051F08091250C81608093250C08C081E0C6
:102940000E94D013E0CF81E00E94D013F2CFDF913C
:10295000CF911F910F910895FC01A091B30BB0E0AE
:10296000AA0FBB1FAA5DB34FED93FC938FEB0995A4
:1029700080E00C94D013CF93DF93C3EBDBE088812E
:102980008150888380E00E94D01310920F08E88164
:10299000F0E0DF01A258BD4F8C9180938001EE0FD3
:1029A000FF1FEA5DF34F0190F081E02D8EEBDF9188
:1029B000CF91099480919C08811108C080919A0858
:1029C000811104C080919B08882311F084E105C027
:1029D00080912301882321F081508093230106C038
:1029E00080916300869581708093240180912401F9
:1029F00008958E30910554F4FC01EE0FFF1FE80F8F
:102A0000F91FE556FC4F81E0908148C08231910565
:102A100009F17CF48F30910531F124F48E30910569
:102A2000D9F51BC08031910539F181319105A1F5AE
:102A30002DC08431910559F03CF08531910519F193
:102A40008631910549F525C091B1947026C091B1A8
:102A5000927023C0909163001AC09091630093FB21
:102A6000992790F90DC08091630083FF15C091B143
:102A700096FB992790F911C091B196FB992790F98F
:102A800081E098270AC091B1907107C091B191700F
:102A900004C091B1907201C090E081E0911101C039
:102AA00080E00895CF93DF93C82FD62FCA010E94EC
:102AB000F914882311F022E001C020E0482F405D86
:102AC0006D2F8C2FDF91CF910C94BE0DF894209137
:102AD000890230918A027894C9010895EDE0FCE002
:102AE0009081982B90830E94661590930C0C809394
:102AF0000B0C0895AF92BF92CF92DF92EF92FF92AC
:102B00000F931F93CF93DF93D82EC62EA42E122F90
:102B10006EEA70E08C2D0E94BA11B0900F08C0E0F0
:102B2000D0E0E12EF12C8C2FBC1202C001110BC0A1
:102B3000F7010C2E02C0F595E7950A94E2F7E0FF45
:102B400004C020E003C023E001C022E0482F405D24
:102B50006C2D8D2D0E94BE0D86E0D80E2196C530BD
:102B6000D10509F7002399F080917E01882379F03F
:102B700090E2A9120CC010927E0141E050E001C029
:102B8000440FBA94EAF7142782E00E946E15812F51
:102B9000DF91CF911F910F91FF90EF90DF90CF9039
:102BA000BF90AF9008951F93CF93DF93162FEA0144
:102BB0000E943E13FC01E10FF11D9E013595279502
:102BC000359527952083110F23E030E0012E01C0B9
:102BD000220F0A94EAF72095FC0134812323AE01E9
:102BE0004370552701C0440F1A95EAF7240F248338
:102BF00082E0DF91CF911F910C946E15EF92FF92BE
:102C00000F931F93CF93DF93C6E1D0E000E810E06D
:102C10006DE0E62E80918C028023FF24F3948111D5
:102C200001C0F12CCE010E94F914F816C9F03C2F16
:102C300031512C2F2D50353018F0811103C006C0B2
:102C4000882311F0122F02C01E2D1C1B243018F4F3
:102C5000111101C011E080918C02802780938C02B9
:102C600006952197CE30D105A9F60E9466152091D0
:102C7000110130911201821B930B0B9708F010E0A9
:102C80000E9466159093120180931101812FDF91AC
:102C9000CF911F910F91FF90EF9008957F928F92A7
:102CA0009F92AF92BF92CF92DF92EF92FF920F93DB
:102CB0001F93CF93DF93B090FA0B4FE0F42EFB20DD
:102CC000803869F160F4863230F4843208F582325B
:102CD00008F47CC03FC0813609F078C06BC08338EF
:102CE00009F44EC038F4813809F46BC0823809F019
:102CF0006DC04CC0853841F108F18F3B09F066C0CA
:102D000081E00E94732683E00E94732682E013C054
:102D100082E08F1508F45AC080E18B252BC0E0912A
:102D2000B30BF0E0EE0FFF1FE85DF34F8081918160
:102D30000E94812680E80E94732648C08BEC9BE1AC
:102D40000E94812684E8F7CF8AEF90E30E948126D3
:102D500085E8F1CF833231F493E0F91641F08F2DFD
:102D60008F5F08C0FF2029F08F2D815003C080E0C5
:102D700001C083E08093FA0B81E00E946E1523C0AE
:102D800081E796E40E94AC1483E805C08FEE9BE3D4
:102D90000E94AC1482E8DF91CF911F910F91FF90B8
:102DA000EF90DF90CF90BF90AF909F908F907F90EB
:102DB0000C947326E3E0BE1206C081E00E945A1212
:102DC00002C00E94761280E00E94D013A090A90B4E
:102DD000FDE0AF9EA00111244659544F00E826E0C3
:102DE00060E184E20E94031104E02091E50B40EED3
:102DF00058E060E08AE00E9475444091B20B8091F7
:102E0000E70B841710F027E001C024E0206450E0B5
:102E100060E183E20E94374746E568E184E20E9470
:102E2000C20E8091EB088823E9F040912B0150916C
:102E30002C0157FF02C027E001C024E0022F60E10F
:102E400088E70E9491444091EB0880912B0190917A
:102E50002C0197FD02C086E301C08FE220E068E10B
:102E60000E9494119CE0C92E91E0D92EC0E0D0E0E0
:102E70002FE1922E8C2E8091AA0BFE0194E0899F67
:102E8000E00DF11D1124EB5EFB4EE491F0E0E85FF4
:102E9000FE4F70806C2F8A2D0E94B1138C018358D5
:102EA0009F4F8B3F910518F488E0E82E02C0BBE0ED
:102EB000EB2E0039EFEF1E0764F00137110564F4C3
:102EC00017FF02C00D5F1F4F1595079515950795C4
:102ED00005C004EE1FEF02C00CE110E0F601819185
:102EE0006F018823D9F046E364E0872D0E94350DF9
:102EF000F2E08F1204C08091F10883FD0CC043E022
:102F00006EE1872D81500E94350D43E06EE1872DE3
:102F10008F5F0E94350D692D601B17C020E046E3CE
:102F20006CE3872D8B510E94B70D172D115020E0B7
:102F300043E06BE3812F0E94B70D20E043E06DE397
:102F4000812F0E94B70D700E6CE363500FEF27E0E6
:102F500047E0872D83500E94840D2196C430D1050F
:102F600009F088CF81E08F1508F495C000E025E5D1
:102F700046E362E286E20E94460D8091FA0B84FFEE
:102F800002C080E401C086E22FEF4AE162E20E94C3
:102F9000B70D10E0E9E1DE2EFBE1CF2E8091FA0BB8
:102FA000E12F84FDE85FF0E0EE0FFF1FEA5CFE4FCB
:102FB000C081D18191E0F916A9F0CE010E9486204E
:102FC000AC01612F66956695660F660F660F685DAA
:102FD000812F83708C9D802D112420E28F5D0E94B3
:102FE000873A54C0143018F462E2962E02C05EE5AF
:102FF000952E812F8370B82EBB0CBB0CB80E46E209
:10300000E42EEB0C8091F20885FF03C060E075E0D0
:1030100002C060E074E0FB01F695E795AE01D7FFD2
:1030200004C0442755274C1B5D0BD49EC001D59E80
:10303000900D11248E0F9F1F0E944965A62EE9E175
:10304000E61714F429E1A22E00E025E543E36E2DF6
:10305000892D89510E94460D6B2D6C5D45E0892DAF
:103060000E94350D1C161D0614F4939401C09A1885
:103070006B2D695D20E04A2D892D0E94B70D6B2DC7
:103080006B5D20E04A2D892D0E94B70D1F5F18301F
:1030900009F084CF76C0F2E0FF125AC0BF1231C0EF
:1030A0000E941E3311E2C4E0C93079F48EE090E052
:1030B0000E94F91481117CC08FE090E00E94F91405
:1030C000882309F477C0D2E003C0DC2FC73028F092
:1030D00098EEF92EF10E05E602C0F12E0AE08C2FD3
:1030E0000E946421882311F022E001C020E04D2FCE
:1030F0006F2D802F0E947311CF5F185FCA30A1F629
:1031000040C0C0E083E0F82E0BEA1EE1DC2FDE5E5B
:103110008D2F0E946421882311F022E001C020E05D
:103120008C2F6F2D0E94C364990F990F990F9F5D8B
:10313000C09F312D11243695319F802D11244D2FA4
:10314000692F865F0E947311CF5FCC30F9F619C0EA
:10315000409133015091340104E024E068E287E5B6
:103160000E9491444091EE08809133019091340186
:1031700097FD02C086E101C08FE020E060E30E947D
:1031800094118091DE088823B9F022E041E260E0EA
:1031900085E7DF91CF911F910F91FF90EF90DF9026
:1031A000CF90BF90AF909F908F907F900C94BE0D6A
:1031B000D1E08ECFD3E08CCFDF91CF911F910F91D3
:1031C000FF90EF90DF90CF90BF90AF909F908F9047
:1031D0007F900895DF92EF92FF920F931F93CF930A
:1031E000DF93082FCCE2D2E010E0812F0E94B212D0
:1031F0009C014E855F85841795070CF4AC015F87B1
:103200004E874C8D5D8D421753070CF4A9015D8FDD
:103210004C8F812F8450833060F42E853F85240F9E
:10322000351F37FF02C02F5F3F4F359527953983F4
:1032300028831F5F22961730C1F680915602809333
:103240002501003229F00F3B31F41092560203C0E1
:103250008F5F8093560280915602813069F030F082
:10326000823069F1833009F083C075C06DE07AE087
:1032700088E10E94BA117EC022E04EE15AE060E18E
:1032800080E00E94B01163E37AE088E10E94BA1105
:10329000CCE2D2E0D12CB8E9EB2EBAE3FB2E08E663
:1032A00015ECFF86EE861D8F0C8F8D2D0E94B212BD
:1032B00089939993D39487E0D812F3CF5BC022E02F
:1032C00045E45AE060E180E00E94B01163E37AE0F7
:1032D00088E10E94BA11EAE3F2E0C9EBDBE0619118
:1032E0007191848595859B01281B390B37FF03C09D
:1032F000319521953109233331053CF1DF01509798
:103300004D915C91598348839A01261B370BB90173
:1033100037FF02C0615C7F4FA6E075956795AA955F
:10332000E1F7261B370B3B832A83841B950B9C01FB
:1033300097FF02C0215C3F4F56E0359527955A957F
:10334000E1F7821B930B9D838C83269682E0E83401
:10335000F80729F60FC00E94D8129093E40B8093CF
:10336000E30B81E00E946E1584E08093560202C058
:1033700010925602DF91CF911F910F91FF90EF9025
:10338000DF900C941E330F93CF93C82F00E026E0FC
:1033900048EA59E065E00E945547811103C0109248
:1033A000250109C081E09AE00E94BF118C2FCF91C6
:1033B0000F910C94EA18CF910F910895CF93C82FD5
:1033C000813221F080915602843039F41092250127
:1033D0008EE496E1CF910C94AC1441E05AE060E0A9
:1033E0008EE10E94B71180E00E94D00C8C2FCF910B
:1033F0000C94EA181F920F920FB60F9211242F937C
:103400003F934F935F936F937F938F939F93AF936C
:10341000BF93EF93FF937894809103019091F1080B
:103420009770891729F0823029F40E94D31102C0C5
:103430000E942A10FF91EF91BF91AF919F918F91C0
:103440007F916F915F914F913F912F910F900FBEA0
:103450000F901F9018951F920F920FB60F92112484
:103460008F939F93CF93DF93EF93FF9380912802E5
:10347000882321F01F9A1092280204C01F9881E02F
:1034800080932802C0910401D0910501FE01819131
:1034900091919093870080938600F0930501E093CB
:1034A00004018091260290912702909385008093D9
:1034B00084008A819B81892B61F48EED91E0909349
:1034C0000501809304018091F208829581708093B8
:1034D00028028091250C82608093250CFF91EF914A
:1034E000DF91CF919F918F910F900FBE0F901F9002
:1034F00018951F920F920FB60F9211242F933F939E
:103500004F935F936F937F938F939F93AF93BF93EB
:10351000EF93FF932CB5E0910101F09102018081BE
:103520009181892B61F488EE93E09BBD8ABD0E9456
:10353000D3118091250C82608093250C28C0809146
:103540000301843061F080919501882321F0C09AB5
:103550001092950104C0C09881E080939501E0919C
:103560000101F0910201819191919BBD8ABDF0937F
:103570000201E093010180919401821710F42093DD
:10358000940180919301281710F420939301FF91E7
:10359000EF91BF91AF919F918F917F916F915F91CB
:1035A0004F913F912F910F900FBE0F901F90189544
:1035B0001F920F920FB60F9211242F933F934F93A8
:1035C0005F936F937F938F939F93AF93BF93CF93AB
:1035D000EF93FF93209180003091810080917D00D6
:1035E0008F7D80937D0078948091290290912A02AA
:1035F000A901481B590BCA0196958795AC01415A00
:103600005F404F3D5E4220F481E080932B022CC04E
:10361000C0912B024C2F4150483030F5AC01415243
:10362000534047375540F0F444E640939201EC2F65
:10363000F0E0EE0FFF1FE058FE4FAC014C5D55402F
:103640006091020C665F649FC001659F900D11241C
:103650006AE070E00E94356571836083CF5FC0933C
:103660002B0202C010922B0230932A0220932902CF
:10367000F89480917D00806280937D00FF91EF91AE
:10368000CF91BF91AF919F918F917F916F915F91FA
:103690004F913F912F910F900FBE0F901F90189553
:1036A00078941F920F920FB60F9211248F93EF937D
:1036B000FF93E1E8F1E080818F5F8083FF91EF91DC
:1036C0008F910F900FBE0F901F9018950F93CF936F
:1036D000C82F81110E94ED5F80910D0C80FD05C007
:1036E00080910D0C81FF1DC00FC0815080930D0C87
:1036F0000C2F25E530E046EB5BE061E080E00E94C6
:10370000385FC111EDCF0DC010920D0C8091E50B0B
:103710000C2F29EC32E040EE58E062E08F5F0E940F
:10372000385FCF910F910895CF93C82F803188F5DE
:10373000809103018F3F19F081E0809379018C2FF4
:103740008F5F0E94175F69EC72E080EE98E00E9444
:10375000635F8F3F910509F030F48C2F0E949E40EB
:1037600081E00E94661B0E947612809103018F3FC8
:1037700021F00E947638109279011092780110920F
:1037800077011092760160E286E591E0CF910C948A
:10379000403DCF9108952F923F924F925F926F924A
:1037A0007F928F929F92AF92BF92CF92DF92EF92D1
:1037B000FF920F931F93CF93DF93CDB7DEB764973C
:1037C0000FB6F894DEBF0FBECDBF782E8091AF0B41
:1037D000882331F11092AF0B109180011F5F412FB0
:1037E00050E0CA01880F991F840F951FFC01E35612
:1037F000F74F048163E08F55974F0E94403D81E071
:103800008093DD08812F0E941D0F002319F0802F67
:103810000E94CD1F1092DD0810927F01BEEB7B2E1F
:1038200080917F01882339F0872D8F71813019F4C1
:10383000872D815001C0872DF09080010FE020E09E
:1038400040E050E060E00E945547882309F4E6C25A
:1038500080917E01181614F410927E0171100E945E
:10386000ED5F1091800123E62715A0F032E6731674
:1038700008F060C181E2781609F441C0871520F094
:1038800090E279128CC15BC0872D8254823008F09F
:1038900086C150C120E8721609F451C0271528F0DE
:1038A00035E6371508F47BC132C181E87816B1F0EE
:1038B0009FEB791274C11091E50B109380011730C2
:1038C00024F0812F865080937D0110927F018FEF2D
:1038D00080937E0181E00E94661B61C180917F011F
:1038E000882369F080917C01811109C08091E50BEA
:1038F000811729F0812F0E94C50E81116BC2809122
:103900007F01882309F44BC1823021F080917B0133
:1039100087FF0FC0812F992787FD909540962091B2
:103920007C01820F911D27FD9A9560E170E00E9455
:103930003565182F8093800110927F0130C110925D
:103940007E0100917F01002309F4B1C080917C01C8
:10395000811104C080917B0187FDA9C0013019F459
:1039600081EC99E002C082ED99E00E948E3C81E0FA
:103970000E94661BC12EDD24C7FCD094C601409670
:1039800020917C01820F911D27FD9A9560E170E0E6
:103990000E943565982E80917F01813009F044C0E6
:1039A00060917B016F5F7E0120E1E20EF11CC70197
:1039B0000E94D40E41E062E0892D8F5F0E94215F5A
:1039C0000F2D0CC0CE0101960E94264F80917A01E6
:1039D000882321F01092DD08912E26C04FE0BE0111
:1039E0006F5F7F4F8E2D902F0E94571F682F811180
:1039F000E9CF8091110C882329F00E94541F082FD1
:103A0000811103C280910F0C8093D5089091100C06
:103A10009F708091D608807F892B8093D60861E1C2
:103A200080910E0C0E94300F8091E50B80937B01FA
:103A3000A0E1AA2EB12C26C080917C0118161CF49E
:103A4000C7010F9602C0C7010196B5010E943565F6
:103A5000882E682F6F5F892D8F5F0E94300F209115
:103A60007B01332727FD3095E216F30619F4809287
:103A70007B0107C0482D50E04217530711F4909284
:103A80007B01982CE92CF12CCE14DF04A9F680914F
:103A90007B019091E50B891729F08093E50B81E07C
:103AA0000E946E1510927F01FEEB7F2E78C030E8E9
:103AB00073121AC010927F0180E80E9473268091D1
:103AC000E50B811709F46BC080EF99E00E948E3CF2
:103AD00081E00E94661B1093E50B81E00E946E1549
:103AE000812F0E94941B5BC0812F0E94C50E8823EA
:103AF00009F455C0013011F482E001C081E08093E7
:103B00007F0110927C018FEF80937B0148C08091F0
:103B1000E50B18130BC084E6781619F082E59DE4D6
:103B200002C08BE798E20E94AC1478C182E00E9448
:103B3000D01335C090917F01992389F180917C0148
:103B4000811B8F0D803111F0803F09F480E02091BE
:103B50007B0127FF22C0913001F5F0927B011F2DE0
:103B6000812F90E022E6721202C0419601C00F96AA
:103B7000182F1F70812F0E94C50E882319F01F1166
:103B8000EFCF1FEF17FF06C084E00E94D013109202
:103B90007F011F2D1093800180E080937C0142EE15
:103BA00059E060E086E30E94B711772031F00E946F
:103BB0009E1F909373028093720240917202509103
:103BC000730220E060E086E60E94873A8091E50B70
:103BD000181302C042E001C040E06BE080E00E94A8
:103BE0008D3A87EE99E00E94BF1179E0672EA12CF3
:103BF000B12CC12EDD24C7FCD094EAE04E2E812EDC
:103C0000912C562C5A9430907D013A0C20907F01D3
:103C1000211007C0832D90E0C816D90611F422E1C7
:103C200001C020E1E32CF12CA7014F5F5F4F02E0C0
:103C3000662D84E10E944E39201639F031E02312BE
:103C400052C080917B0187FD4EC0EC14FD0479F4D5
:103C500081E0281208C030907B014BE2662D8AE794
:103C60000E94C20E40C030907C01310E3CC02091B9
:103C70007C0127FF1BC0EC14FD0444F4C601820F35
:103C8000911D27FD9A95E816F90674F49FE0E91A4C
:103C9000F108CE14DF043CF1C601820F911D27FD0F
:103CA0009A958E159F05FCF433941DC02223D9F0FC
:103CB000CE14DF0444F4C601820F911D27FD9A95AE
:103CC0008E159F0574F43FE0E30EF11CEC14FD0427
:103CD00054F0C601820F911D27FD9A95E816F9064A
:103CE00014F48FE0380E9FE03922832D0E94C50E18
:103CF000882309F446C04A9C70014B9CF00C1124A7
:103D00002CE232E0E20EF31E772021F0B701832D82
:103D10000E94D25F00E0232DA701662D88E10E945A
:103D20007544E32CF12CC7010196FC01EE0FFF1F37
:103D3000E80FF91FEE55F74F408151815F7020E089
:103D4000662D88E70E94873A8091E50B992787FDC9
:103D50009095E816F906A9F480917F01813061F40D
:103D600080917B0187FD08C080917D019501280F1E
:103D7000311D2815390529F04AE2662D81E00E949F
:103D8000C20EF0907F01FF20E1F080917D0195014E
:103D9000280F311D82169306A1F400E027E046E7C4
:103DA000662D89E00E941A3931E0F31202C00FEF4C
:103DB00001C005E5E12C29E048E7652D88E00E9477
:103DC000840D8FEFA81AB80A98E0690E21E46212F8
:103DD00018CF24C084EB99E09093B50B8093B40B7B
:103DE00081E08093AB0B64E772E0812F0E94D25F89
:103DF00084E792E09093AE0B8093AD0B8AE08093C2
:103E0000AC0B81E80E947326CACE60E08091110C51
:103E10000E94110F802F0E94CD1FF4CD64960FB623
:103E2000F894DEBF0FBECDBFDF91CF911F910F91F0
:103E3000FF90EF90DF90CF90BF90AF909F908F90CA
:103E40007F906F905F904F903F902F9008959C01CE
:103E500045E0359527954A95E1F7280F391FAC01C4
:103E6000440F452F441F550B241B350B892F990FE9
:103E7000990B8595280F391FC9010895CF93DF93BA
:103E80001F92CDB7DEB770E090E1899F600D711D84
:103E9000112441E050E0CE0101960E945D658981C8
:103EA0000F90DF91CF91089560E00C943E1FEF9248
:103EB000FF920F931F93CF93DF93EC018B01E42EBE
:103EC000288130E0F901EE0FFF1FE20FF31FEE55DE
:103ED000F74F20818181382F3F7069817A81261BBD
:103EE000370B642F70E02617370708F4E22EFE2CFC
:103EF00014C08B81882399F06C816F5F6C830E9462
:103F00003E1FF80181938F018C818F3028F01C8235
:103F10008B810E94541F8B83FA94F110EACF8E2D6F
:103F20008F1929813A81280F311D3A832983DF9126
:103F3000CF911F910F91FF90EF900895CF93DF9352
:103F400080919F08C0E0D0E003C02F960E94541FCC
:103F50008111FBCF2091D5088091D608382F3F7072
:103F60002C0F3D1F8091E50B992787FD90950196B9
:103F7000FC01EE0FFF1FE80FF91FEE55F74F808190
:103F80004181942F9F70281B390B37FF02C020E01E
:103F900030E0C901DF91CF910895CF93DF93D82FFF
:103FA000C82F01C0C82F8C2F0E94541F8111FACF37
:103FB00060919F088C2F0E94110FD0939F08DF9172
:103FC000CF910C94090FA998AB98AC988BBBAD9A84
:103FD000AD98AB9AA99A08951F93CF93DF9310E001
:103FE000C5ECD3E084E00E94E31F80E10E94E31F60
:103FF000812F806B0E94E31FA998AB9AAC98CE01E9
:1040000080589F4FFE0121912BBBAD9AAD98E817C8
:10401000F907C9F7C058DF4FAB9AA99A1F5F18304C
:1040200009F7DF91CF911F910895CF93C82F81E8B1
:104030000E94E31F8C2FCF910C94E31F8091E60B1D
:104040000C9415201F93CF93DF93162FD42FC22FDC
:1040500081500E942010FC011F708281807F812B83
:104060008283D083C183DF91CF911F910895CF9335
:10407000DF93EB010E94740FDC0180E090E0FE0111
:10408000E80FF91FE491ED93019685309105B9F79A
:10409000DF91CF910895FC016183808167FF02C0A9
:1040A000806401C08F7B80830895CF92DF92EF926E
:1040B000FF92CF93DF936B017C01C0E1D0E040E041
:1040C00050E8E0E0F0E89A01DA010E948D64C6163B
:1040D000D706E806F90610F44E275F27F695E79510
:1040E000219719F04E2B5F2BEECFCA01DF91CF91B4
:1040F000FF90EF90DF90CF90089529E1AC01249FCD
:10410000C001259F900D1124892F08959C0145E041
:10411000359527954A95E1F7AC01421B530B9A015F
:10412000880F892F881F990B280F391FC9010895FF
:1041300049E2489F9001499F300D112435952795FC
:1041400035952795492F441F4427441F50E0841B71
:10415000950B76E0959587957A95E1F7281B390BB5
:10416000241B350BC9010895992787FD90950C9460
:1041700098209F92AF92BF92CF92DF92EF92FF92E0
:104180000F931F93CF93DF93982E6A017B010E94B8
:10419000E6128C01FC0183812481922F9F73880F8A
:1041A000991F880F991F95958795959587950E94DA
:1041B000271F5C01F80181818C590E94B420EC0119
:1041C000F801808184560E94B420FC019C2F8D2F21
:1041D000AC16BD0614F49A2D8B2DA92EB82EAE1652
:1041E000BF060CF45F01C114D1048CEFE8068FEF19
:1041F000F806B4F0C114D10484E0E806F1043CF4FC
:10420000C114D104E104F10479F184F005C0C12C9A
:10421000D12C94E0E92EF12CDE01AA19BB0909C0CA
:10422000C12CD12C8CEFE82EFF24FA94D501AE1BC3
:10423000BF0BA70196010E94AB646B017C01CC24EB
:10424000F7FCC394DD24EE24FF24DC01CB018C19A0
:104250009109A109B109CD01959587959595879506
:104260008C0D911DA80EB91ECA15DB050CF45E015C
:10427000AE16BF060CF45F01F801848187FF03C00E
:10428000B194A194B108E92DF0E0E356FD4F80818F
:10429000803869F0DF91CF911F910F91FF90EF90DF
:1042A000DF90CF90BF90AF909F900C94B420C50149
:1042B000DF91CF911F910F91FF90EF90DF90CF9002
:1042C000BF90AF909F900895AF92BF92CF92DF9230
:1042D000EF92FF920F931F93CF93DF93B82E882313
:1042E00009F46DC1992787FD909597FF03C09195BB
:1042F00081959109282F8F3139F481E0909127031E
:10430000992309F457C153C18E3109F452C18A303F
:1043100028F499270D960E94F9144CC18231E0F4DB
:104320002A50E091AA0B822F869564E0E69FF00167
:104330001124E80FF11DEB5EFB4EE491217080B378
:10434000EE0FE20FF0E0E95AF54FE4918095E82393
:1043500081E009F02FC12BC18251C82ED12CEE244F
:10436000E394F12C082E02C0EE0CFF1C0A94E2F735
:1043700020910D0330910E032E213F21232B59F064
:1043800020918202309183022E213F2181E0232B54
:1043900009F010C10CC120910D0330910E032E299C
:1043A0003F2930930E0320930D030E942010EC014F
:1043B0009A81892F82958F708A3008F0885F9F706C
:1043C00009F4FFC0882309F406C10E946421811109
:1043D00002C1F7C088810E946421182F89810E9440
:1043E00064212A812F7030E02630310521F02730FA
:1043F0003105A9F411C0112309F4CDC0882309F4B3
:10440000CAC080918202909183028E299F29909345
:10441000830280938202CDC0112381F3F2CF8127E2
:10442000EDCF84E0A8120CC0F601EE0FFF1FE15F94
:10443000FC4F80819181181619060CF4ACC0E1CFB5
:1044400095E0A91208C0F601EE0FFF1FE15FFC4FD7
:1044500080818170D3CF88810E9423238C0162E008
:10446000A6121CC089810E9423232A812F7030E06C
:104470002930310521F02A30310559F405C00817DB
:10448000190709F088C0BDCF801791070CF4B9CF88
:1044900082C0081719070CF4B4CF7DC088818B3314
:1044A00040F0298183E028029001112420583E4FDA
:1044B00004C089810E94B4209C014A814F7050E061
:1044C0004330510539F13CF44130510559F0423047
:1044D000510529F515C04430510569F045305105A5
:1044E000F1F413C0021B130B015F1F4F0F311105B5
:1044F00008F487CF50C017FF03C01195019511092B
:10450000201731070CF47DCF46C017FF03C011956B
:1045100001951109021713070CF473CF3CC0C601B3
:10452000880F991FFC01E15FFC4F408151814115CB
:10453000504811F411830083FC01E15FFC4F80813E
:104540009181A801481B590B8A818F708C3091F49E
:1045500081E037FD07C0421753070CF480E057FF96
:1045600043C011C0241735070CF480E0141615065B
:1045700054F03AC057FF03C051954195510981E06D
:104580004217530744F0F601EE0FFF1FE15FFC4FA7
:104590001183008333CF8091820290918302E09453
:1045A000F094E822F922F0928302E092820280E005
:1045B00001C081E01B14DCF091E0892718C081E084
:1045C00016C0F601EE0FFF1FE15FFC4F80E090E8A0
:1045D00091838083E0CF8A818F700E940E10A82E75
:1045E00081E0A8121ECFF6CE8111CDCFD4CFDF91BE
:1045F000CF911F910F91FF90EF90DF90CF90BF90E0
:10460000AF9008950F931F93CF93DF93C1E0D0E055
:104610000DE01C2F0C9FF0010D9FF00D1124EC59A3
:10462000F44F8581882321F00E946421811105C007
:104630002196C530D10569F710E0812FDF91CF9128
:104640001F910F910895811103C020E030E079C0DF
:10465000883038F4E82FF0E0EE0FFF1FE95CFC4FE4
:104660000BC0883009F426C08C3048F4E82FF0E005
:10467000EE0FFF1FEA50F84F2081318162C0803178
:1046800068F4682F6C508091A90B0E94B11373E0FD
:10469000880F991F7A95E1F70C94271F803169F4F0
:1046A00081E00E94642181114AC082E00E9464215D
:1046B0008111CBCF20E034E044C0873110F48D501D
:1046C00003C0833230F485500E9464218823B9F1FD
:1046D000F1CF8B32C8F4482F50E043525109DA0130
:1046E000AA0FBB1FAE57BE4F2D913C91873248F4A5
:1046F000FA01EE0FFF1FE651F44F80819181281BD4
:10470000390B220F331F1DC08B3338F4E82FF0E034
:10471000EE0FFF1FE95AFD4FAFCF8B3321F42091ED
:10472000B20B30E00EC08E3308F08FCF98E0899F37
:10473000F0011124EA5BF0402581368102C020E0BF
:104740003CEFC9010895CF93DF93D0E0C0E08D2FF7
:104750000E94B21226E0969587952A95E1F7C80F38
:10476000DF5FD430A1F7D0E18D2F0E942323C90F42
:10477000DF5FD731C9F780912E039C2F981B892FBB
:10478000992787FD909597FF03C091958195910991
:10479000823024F0C0932E0381E001C080E0DF91DD
:1047A000CF9108958091890290918702981761F1C5
:1047B000809387020E94A323882349F010922D033F
:1047C00010922C038091E90B81FD0E94C012809110
:1047D000E90B843069F08091850290918602892BE3
:1047E00039F48091760186FB882780F9817001C0B9
:1047F00081E090918402992311F091E08927882328
:1048000011F0C79A0895C79808957F928F929F924A
:10481000AF92BF92CF92DF92EF92FF920F931F93CE
:10482000CF93DF937C01862F0E948A0FEB012CEF40
:10483000F21A1E141F040CF009C0882E912CE114EA
:1048400088E0F80654F0C80DD91D21978881992772
:1048500087FD9095982F882763C0911117C029C0B4
:104860008A159B0551F0FE01E80FF91FE80DF91DAF
:1048700080810E94B4209C5F02C080E098E08E1589
:104880009F0558F57394A8018C010DC0712C00E0B0
:1048900010E040E050E0640121E0C21AD108540168
:1048A00082E0A81AB108872D90E08C159D05C4F20E
:1048B00016C0B4016150710980E098E00E9435652E
:1048C0008B01C7010E944965762E609FA001619F00
:1048D000500D1124040F151F02C0A8018C01FE0108
:1048E000E70DF11DC081DD27C7FDD0959701241B81
:1048F000350BA181BB27A7FDB095AC1BBD0B0E945A
:104900009964982F872F762F66279801241B350BE3
:1049100040E050E00E94CF649C2F8827820F931FB5
:1049200069E170E00E943565CB01DF91CF911F9165
:104930000F91FF90EF90DF90CF90BF90AF909F903E
:104940008F907F9008959C016330A1F034F4613022
:1049500051F064F4662391F120C06530A9F084F031
:104960006630D9F416C097FF29C010C01816190672
:104970002CF50CC097FF22C03195219531091EC03E
:1049800018161906B4F002C097FD16C020E030E0FA
:1049900015C01816190684F40CC067FF06C03195BF
:1049A0002195310986E0861B682F6750C9010C9458
:1049B000052420E034E002C020E03CEFC901089566
:1049C0006091C5070C9405249C01220F331F492FC9
:1049D000441F4427441F50E0841B950BBC01759570
:1049E0006795260F371F240F351FF4E0959587959F
:1049F000FA95E1F7280F391F240F351FC9010895D3
:104A0000992787FD90950C94E424CF92DF92EF9242
:104A1000FF92CF93DF93EC01862F0E940025FC01CB
:104A20009E01DE010E948D649B01AC01DF010E94AA
:104A3000A064272F382F492F5527DE010E94A0643C
:104A40006B017C01CCE0F694E794D794C794CA95A7
:104A5000D1F720E031E02E1B3F0B0E948D6460589F
:104A60007F4F8F4F9F4F6C0D7D1D8E1D9F1D472FBC
:104A7000582F692F7727CA01DF91CF91FF90EF90D0
:104A8000DF90CF9008952F923F924F925F926F9256
:104A90007F928F929F92AF92BF92CF92DF92EF92CE
:104AA000FF920F931F93CF93DF93CDB7DEB7289775
:104AB0000FB6F894DEBF0FBECDBF682E592E762EEE
:104AC00028E0E82FF92FCE010196DC0101900D922C
:104AD0002A95E1F7C12CD12C88248A94482E392EAE
:104AE000A12C24E0B22E8C2D711008C0F601EE0F1F
:104AF000FF1FE853F84F91819F7791830E94F61230
:104B00007C01FC018081982F937009F48EC0218173
:104B1000622F637070E0482D552747FD509564174C
:104B2000750709F47AC0269526952F7130E000901C
:104B3000A90B02C0359527950A94E2F720FD6DC0B8
:104B4000859585950E946421882309F466C0F70144
:104B50009180F3E09F22E42DF32DE90DF11DE90D85
:104B6000F11D00811181F701808117FF03C080FDD5
:104B700003C053C081FF51C071100AC0F601EE0F8F
:104B8000FF1FE853F84F81819FEF90FB87F98183E6
:104B9000892CF7016381662351F1818187FF05C06C
:104BA000C8010E94A3248C0122C0212E221C222491
:104BB000221C19F0119501951109772767FD709551
:104BC00077FF0CC0719561957109C501801B910B30
:104BD0000E9405258501081B190B04C0C8010E940D
:104BE00005258C01222019F0119501951109F70175
:104BF00082810E9400259801DC010E948564BB2708
:104C000097FDBA95A92F982F872FE62DF52DE90D41
:104C1000F11DE90DF11D91838083FFEFCF1ADF0AAB
:104C20008EE0C816D10409F05ECF28960FB6F8942E
:104C3000DEBF0FBECDBFDF91CF911F910F91FF90CF
:104C4000EF90DF90CF90BF90AF909F908F907F902C
:104C50006F905F904F903F902F900895CF92DF928A
:104C6000EF92FF920F931F93CF93DF93CDB7DEB7F1
:104C700028970FB6F894DEBF0FBECDBF6C018091B0
:104C800093080E94F6127C018E010F5F1F4F88E08F
:104C9000F80111928A95E9F7F70181818370D801B3
:104CA000A80FB11DA80FB11DCD92DC9261E0C80123
:104CB0000E944325F70181818370F801E80FF11DFF
:104CC000E80FF11D8081918128960FB6F894DEBF20
:104CD0000FBECDBFDF91CF911F910F91FF90EF904D
:104CE000DF90CF9008958F718E3050F490E0FC01EA
:104CF000EE0FFF1FE80FF91FE556FC4F83E6828396
:104D00000895CF93DF93EC0180E00E947326809199
:104D1000B30B81110EC090E3CA3FD90719F491E09B
:104D200090937E02EBE1CB3CDE0751F410927E02C1
:104D300007C0E82FF0E0E258FD4F9091800190838A
:104D40008F5F8093B30B80E00E94D013A091B30BD0
:104D5000B0E0AA0FBB1FAA5DB34FCD93DC938FEBDE
:104D6000FE01DF91CF9109948F718E3058F490E05D
:104D7000FC01EE0FFF1FE80FF91FE556FC4F82E61E
:104D8000828311820895AF92BF92CF92DF92EF9209
:104D9000FF920F931F93CF93DF93182F7B015A013C
:104DA0006901843651F0843441F080917E011816F7
:104DB0003CF4133611F0133419F4E70121960CC0BA
:104DC000153641F0153431F0181654F4123611F03E
:104DD000123431F4E701219780E00E94D01301C022
:104DE000E701A114B10481F481E0C816D10461F493
:104DF000103251F410927E01C1E0D0E0E114F104D0
:104E000091F0C0E0D0E00FC0CC16DD062CF0CA1542
:104E1000DB054CF4E50101C0E601812F0E947326F9
:104E200082E00E94D013CE15DF0521F102FD15C0EE
:104E3000CC15DD0591F0CA15DB0579F0209739F026
:104E4000CC398FEFD80719F0C436D10531F4812F52
:104E50000E94B42680E00E94D013802F83700E94AD
:104E60006E15EC16FD0614F481E001C08FEF8093FF
:104E70000E0802C010920E08CE01DF91CF911F9153
:104E80000F91FF90EF90DF90CF90BF90AF9008957B
:104E9000BF92CF92DF92EF92FF920F931F93CF9327
:104EA000DF93F82ED62EEA01C22E102F6FE57AE09E
:104EB0008D2D0E94BA11EE2031F080917E011816DE
:104EC00024F002E103C000E001C000E100682C2DE5
:104ED000AE016D2D8F2D0E940311EE2009F46FC0DD
:104EE000E0900F0880917E0118160CF065C0FE015D
:104EF000EE0DF11DB080812F8256823020F01234E9
:104F000011F01334D9F4EB2DFF27E7FDF095F7FFEF
:104F100003C0F195E195F1096E2F772767FD709534
:104F200000E028E230E040E050E0812F0E94C326FC
:104F3000082F1B140CF403C0019501C00B2D153272
:104F400049F018F41432F9F409C0812F84588230E2
:104F5000D0F40FC0EE20B9F0EA9415C04E2D50E009
:104F60002C2D30E0215031094217530764F4E394AB
:104F70000AC0802F865E853330F40195153819F408
:104F800085E00E947326B01631F0CE0DD11D088346
:104F900082E00E946E15802F0E94E21020910F087F
:104FA000922F990F920F990F22E1482F6D2D8F2D7F
:104FB000890F0E94BE0D01C0E12CE0920F08DF9125
:104FC000CF911F910F91FF90EF90DF90CF90BF9006
:104FD00008950F93332727FD3095552747FD5095AA
:104FE000772767FD709502E00E94C3260F91089510
:104FF000242F40E00C94E927FF920F931F93CF9347
:10500000DF93F82E162FC42FD22F64E67AE0812F7B
:105010000E94BA112D2F4C2F612F8F2D0E947311DA
:10502000DD2359F02DE143EE6C2F802FDF91CF91DE
:105030001F910F91FF900C94E9278C2FDF91CF9156
:105040001F910F91FF9008950F93332727FD3095FF
:10505000552747FD5095772767FD709501E00E9421
:10506000C3260F9108956F927F928F92AF92CF9245
:10507000DF92EF92FF920F931F93CF93DF93CDB701
:10508000DEB7D82EF62E3901102FBA018F2D0E94CF
:10509000BA116114710441F0202F2E190A2DA301B9
:1050A0006F2D8D2D0E946411AA20B9F080917E028F
:1050B000811102C002E001C001E02C2D332727FD41
:1050C00030954E2D552747FD5095612F772767FD69
:1050D0007095882D0E94C326182F812FDF91CF91C4
:1050E0001F910F91FF90EF90DF90CF90AF908F9036
:1050F0007F906F9008952F923F924F925F926F92A0
:105100007F928F929F92AF92BF92CF92DF92EF9257
:10511000FF920F931F93CF93DF93F82ED090F10857
:1051200027E0D22232E03D1510F082E101C081E19A
:10513000C82E62E1E62E05E91AE02BE042E959E0CB
:1051400061E08F2D0E94B13A882309F438C388EAC0
:105150009AE00E94BF11509080015A94B0907E0155
:1051600019E0912C4424439466246394712C20917B
:105170007D01290D1B1414F483E001C082E0521656
:1051800011F0A12C01C0A82E2A3009F411C168F435
:10519000273018F4213030F51BC08091F2082830F8
:1051A00009F4DAC008F0E8C0C7C02E3009F45BC1CA
:1051B00030F42C3009F42DC108F03DC10BC1203171
:1051C00009F410C208F4C9C1213109F0EEC272C25B
:1051D000EA2C0F2D2AE040EE58E0612F8EE30E946A
:1051E0004827E3C231E0243008F430E0832F90E018
:1051F000EC01CC0FDD1FC80FD91FC551D74F22308E
:1052000011F0253081F48A81EF2C0A2D2EEA3AE044
:10521000412F6EE385FB882780F90E94C23C9A816A
:1052200080FB95F912C0233011F0263081F48A8179
:10523000EF2C0A2D26EB3AE0412F6EE38295817028
:105240000E94C23C9A8180FB94F99A83AEC23323B8
:1052500011F022E001C021E000E041EC5AE0612FB2
:1052600080E00E94664180910F08882311F020E0C1
:1052700001C02A2D4881612F8EE30E9494118091F4
:105280000F08823021F0813029F000E001C00A2DA2
:1052900020E002C02A2D00E049815A815F70612F11
:1052A00084E70E949144AA2009F47FC21B140CF0E9
:1052B0007CC29A816CE370E089819F700E943565A1
:1052C0001C0180910F08813069F020F0823009F0D4
:1052D0006CC217C023E241EE68818F2D0E94E9273E
:1052E000888363C24BE38F2D0E94F82791014CE322
:1052F0008402200D311D1124C90129839F708A81E8
:1053000017C0622D6E5F2EE341E08F2D0E94E927CA
:1053100029814A81342F3F70992787FD9095029704
:10532000281A390A221933092983932F9F70842F51
:10533000807F892B8A8339C2EF2C0A2D27EC3AE033
:10534000412F6EE385FB882780F90E94C23C909133
:10535000F20880FB95F927C2EF2C0A2D20ED3AE0E8
:10536000412F6EE386FB882780F90E94C23C909112
:10537000F20880FB96F917C2082F0295000F007EF5
:10538000059505950595059505958F2C92E0C92EF7
:105390002EEFE22E2CE53CE048ED5AE0612F8EE343
:1053A0000E94332887709091F208987F982BFBC158
:1053B0008091F20887FB882780F9EF2C0A2D22EED6
:1053C0003AE0412F6EE30E94C23C9091F20880FBCC
:1053D00097F9E9C16CEE7AE0812F0E94BA11AA20F8
:1053E00041F043E16091A60B8F2D0E94F827809336
:1053F000A60B8091A60B482F4D5F443020F04F5FE5
:10540000483008F04D5D2A2D612F8EE30E947D41CA
:10541000CCC18091F108EF2C0A2D25EF3AE0412F05
:105420006EE383FB882780F90E94C23C9091F108CB
:1054300080FB93F91EC18091F20883FB882780F9D5
:10544000EF2C0A2D2CEF3AE0412F6EE384250E94C9
:10545000C23C91E0811190E08091F20890FB83F9C9
:105460008093F208A2C166E07BE0812F0E94BA110E
:105470000091A70BAA20C9F010927E0180E2F816D5
:1054800021F020E8F21211C015C0C30100900F08EE
:1054900002C0880F991F0A94E2F79091A80B9827F1
:1054A0009093A80B82E00E946E15212C312CC0E055
:1054B000D0E010C00E94FE1580918C028093A70B53
:1054C00083E00E94D01382E00E946E1580E80E9463
:1054D0007326EBCF3C2F8091A80B90E00C2E02C0DE
:1054E000959587950A94E2F780958170C11107C060
:1054F000E02FE370E05D0695069520E00CC000FF0C
:1055000002C0811102C020E001C022E0F101EE588A
:10551000F04FE4910695AA2041F090910F08931363
:1055200004C0811107C021E002C0811104C020FF26
:1055300004C001C023E04E2F01C04DE2822D815EE8
:10554000612F880F0E94BE0D219683E0280E311C2A
:10555000C630D10509F0BECF28C160E17BE0812FC4
:105560000E94BA118EE3382EC0E0D0E02C2F80913B
:105570000F088C1302C0A1100DC04091F40850E038
:105580000C2E02C0559547950A94E2F740FF04C0DF
:1055900002E003C003E001C000E04BE75CE0612FE4
:1055A000832D0E946411219646E0340E88E638125D
:1055B000DDCFAA2009F4F9C020E2F212F6C0109261
:1055C0007E01C30100900F0802C0880F991F0A9442
:1055D000E2F79091F40898279093F40882E00E94F3
:1055E0006E15E3C06AE17BE0812F0E94BA118091C1
:1055F0000F08882311F000E001C00A2D2D2D43E88B
:105600005CE0612F8EE30E94641132E03D15B8F03A
:1056100080910F08811102C000E001C00A2D209185
:10562000F10825952595259525952E5F43E15CE0AC
:10563000612F88E60E946411A110BDC0B6C0AA20E7
:1056400009F4B3C08F2D0E94660F80910F08882344
:1056500021F0813009F0A9C00FC06091F108677096
:1056600042E08F2D0E94F82787709091F108987F73
:10567000982B9093F10899C06091F1086595659514
:105680006595659524E04EEF8F2D0E94E927829560
:10569000807F8595859585958595282F2295207FF6
:1056A0009091F1089F70922B9093F108880F880FCA
:1056B000880F60C042E04D1508F477C060E27BE0DF
:1056C000812F0E94BA114BE25BE0612F80E50E94BE
:1056D000B71180910F08811103C02A2D206A01C0E3
:1056E00020EA4091A50B85E04802A00111244F510A
:1056F0005F4F612F8EE30E94873A45E7612F80E775
:105700000E94C20E80910F08813011F020E001C08C
:105710002A2D4091F30832E34302A0011124445D95
:105720005E4F612F80E70E94873A80910F08823098
:1057300011F020E001C02A2D8091F20884FF02C000
:105740004BE201C04DE2612F8AE70E94BE0DAA2004
:1057500061F11B1454F580910F08813071F018F03D
:10576000823019F514C023E24CEE6091A50B8F2D09
:105770000E94E9278093A50B18C02AE04CEF6091A6
:10578000F3088F2D0E94E9278093F3080EC06091E3
:10579000F2086295617041E08F2D0E94F827909188
:1057A000F20880FB94F99093F2089394185F47E015
:1057B0009412DDCC04C01B140CF447CFF6CFDF915C
:1057C000CF911F910F91FF90EF90DF90CF90BF90FE
:1057D000AF909F908F907F906F905F904F903F9091
:1057E0002F9008959F92AF92BF92CF92DF92EF9247
:1057F000FF920F931F93CF93DF93D82E01E026E003
:1058000048EA59E064E00E945547882309F4A3C0A0
:105810008EE29BE00E94BF11C0E0D0E039E1C32ED0
:10582000BC2EFC2EF694FF0CFF0CFF0C89E0F80E4A
:10583000C0FF03C025E4E22E01C0E12C2B2D2F5F19
:1058400000E043E35BE06F2D8E2D0E9466414AE34A
:105850006F2D809188020E94C20E8B2D0E94B21281
:105860008C0186E2A82EAE0C92E1992E9E0C8BEF55
:10587000A80EA8014F7055274A302CF0495C4134DE
:105880001CF028E002C0405D20E06F2D8A2D0E94B0
:10589000BE0DB4E016950795BA95E1F7A910E7CFCC
:1058A00093E09B1558F08091AA0BFE0194E0899F2C
:1058B000E00DF11D1124EB5EFB4EB490EB2DF0E0FA
:1058C000EE0FFF1FE75CFC4F80819181C89EA00115
:1058D000C99E500D112457FF02C041505F4F452F04
:1058E000550F550B6F2D8E2D855C0E94E93B21963F
:1058F000C730D10509F094CF45E35BE061E285E470
:105900000E94B7114091B00B5091B10B20E061E2C1
:1059100086E60E94873A69E37BE08EE20E94BA1134
:1059200080918001813011F422E001C020E040919B
:10593000B20B50E06EE286E60E943747809180010C
:10594000813049F42FE741E86091E80B8D2D0E94EA
:1059500024288093E80BDF91CF911F910F91FF9046
:10596000EF90DF90CF90BF90AF909F9008950F93EE
:105970001F93CF93DF93D82F162FC42F022F4111DF
:1059800006C020E04CE05CE00E94641120C047FFAC
:1059900005C041E282500E94BE0DC19503FF0FC0B9
:1059A000202F277F4C2F552747FD509541505109F7
:1059B00001E0612F8D2F8A5F0E944E3908C02C2F85
:1059C000215042E95AE0612F8D2F0E946641DF91FC
:1059D000CF911F910F9108954F925F926F927F9296
:1059E0008F929F92AF92BF92CF92DF92EF92FF92EF
:1059F0000F931F93CF93DF93882E809193080E947B
:105A00003E13EC010E94022340919308841302C0CC
:105A100020E401C020E04F5F60E08EE40E94B72CDC
:105A200080919308811102C082E001C084E0C82EF9
:105A3000E3E0EE2E0BE61AE020E040E050E060E00C
:105A4000882D0E94B13A882309F4B6C08FE69AE007
:105A50000E94BF11C090800150907E0179E0F72E26
:105A6000712C10E0DD24C7FCD0945E0126E0A20E6C
:105A7000B11C80919308811103C0113009F413E027
:105A8000872D90E0C816D90629F415142CF463E08C
:105A9000E62E04C0E12C02C052E0E52E1230F9F0EF
:105AA00030F4112359F0113009F07FC00FC01330CA
:105AB00009F45EC0143009F078C067C0082D26E0F4
:105AC000A5016F2D88E40E9448276FC0082D2E2D58
:105AD0004D816F2D88E40E94FC278D8366C06BE7A3
